:020000040800F2
:10000000A03A00204501000895640008FB4B000859
:1000100059630008010D0008058D0008000000006C
:10002000000000000000000000000000A9680008B7
:10003000471200080000000043680008A16900089A
:100040005F0100085F0100085F0100085F01000810
:100050005F0100085F0100085F0100085F01000800
:100060005F0100085F01000899130008D51100081E
:10007000E1110008ED110008F91100085F01000806
:1000800005120008111200088D0A00085F0100081F
:10009000F58800085F0100085F0100089F13000851
:1000A0005F0100085F0100085F0100085F010008B0
:1000B0005F0100085F0100085F0100085F010008A0
:1000C0005F010008FD4B00085F0100085F010008A8
:1000D0005F010008E9710008017200081972000848
:1000E0005F0100085F0100085F0100085F01000870
:1000F0005F0100085F0100085F0100085F01000860
:100100005F0100085F0100085F0100085F0100084F
:100110005F0100085F010008CD6A0008D96A000885
:100120005F0100085F0100085F0100085F0100082F
:10013000DFF80CD000F04CFC004800476D9E000832
:10014000A03A00200648804706480047FEE7FEE741
:10015000FEE7FEE7FEE7FEE7FEE7FEE7FEE7FEE777
:10016000236A000831010008202A04DB203A21FA22
:1001700002F00021704721FA02F3D040C2F12002C0
:10018000914008431946704740EA01039B0703D09A
:1001900009E008C9121F08C0042AFAD203E011F8C6
:1001A000013B00F8013B521EF9D27047D2B201E088
:1001B00000F8012B491EFBD270470022F6E710B56C
:1001C00013460A4604461946FFF7F0FF204610BDC5
:1001D000421E12F8013F002BFBD111F8013B02F83F
:1001E000013B002BF9D1704730B505462A460B4636
:1001F00012F8010B13F8014B08B1A042F8D01CB162
:10020000002802D06D1CF1E7284630BD421C10F8D2
:10021000011B0029FBD1801A704710B5002200E0B5
:10022000521C835C8C5CA34201D1002BF8D1D8B264
:10023000E1B2401A10BD30B505460020034600E08B
:100240005B1C934205D2EC5CC85C201A01D1002CE7
:10025000F6D130BDF0B480EA0102D40F4200B2EB17
:10026000410F02D20246084611464A0042D0C30D51
:10027000DDB2C1F3C752AD1A202D35DAC1F3160134
:1002800041F4000204B15242C5F1200602FA06F11F
:100290002A411044B3EBD05F23D0C4B1012DA0EBB1
:1002A000C35009DCF0BC4FF0004202EAC352DBB29B
:1002B00000F5000000F0BAB9400000F1807000EBDA
:1002C000C350A0F1807040EAD170490009E04908AC
:1002D00041EAC071A0EBC35000F50000400800EBFC
:1002E000C350F0BC00F099B96142012202EB410118
:1002F000001BF6E7F0BC704781F00041AAE780F0F0
:100300000040A7E780EA010210B502F00043400078
:1003100022D04A001FD0010E01EB1261C0F356003B
:10032000C2F3560240F4000042F40002A0FB022097
:1003300000047F39140400D0401C50EA124001D45C
:100340004000491EC2B20C0604EBD010401C40080D
:10035000802A02D003E0002010BD20F00100002917
:1003600000DA0020184310BD30B480EA010202F028
:10037000004530F0004221F0004013D090B1C30D91
:10038000D40DC2F31601C0F31600E41A41F40001C3
:1003900040F400027D34914201D3641C00E0490026
:1003A000002C02DA30BC002070474FF4000000231C
:1003B000914201D3891A034340084FEA4101F7D122
:1003C00051B1914202D14FF0004105E002D24FF00D
:1003D000010101E06FF0010103EBC450284430BC7F
:1003E00000F01BB9420005D0C0F3C75252429142FF
:1003F00001DC0020704700EBC15070472DE9FE4F33
:1004000081EA030404F0004421F0004100944FF01D
:10041000000B23F0004350EA01045ED052EA0304CB
:100420005BD0C3F30A54C1F30A552C44A4F2F3344D
:100430000194A0FB0254C1F3130141F48011C3F3F2
:10044000130343F4801301FB024400FB034E840AB0
:10045000970A44EA815447EA8357A4FB0768029548
:100460008D0A05FB07854FEA932C04FB0C542705E6
:10047000029D4FEA065847EA1637B5EB08056EEBC2
:10048000070C870E920E47EA811742EA8312A7FBF8
:100490000201B6EB0B0164EB00042B0D43EA0C33B5
:1004A0005E1844EB1C50DA465146E7FB0201C5F3E7
:1004B00013044FEA0B3343EA14534FEA0432019C0E
:1004C00043EA0603A4F10C040294009CCDE900B4B5
:1004D00000F0E9F803B0BDE8F08F00200146F9E72D
:1004E000C10F80EAE0700844CA079623002100F09B
:1004F0009DB896230022114600F098B800F0004203
:1005000020F00040C10DC0F3160040F400007F2928
:1005100001DA00207047962903DCC1F19601C8403A
:1005200001E096398840002AF4D04042704700F03C
:10053000004230F000400AD0C10D01F56071C0F3F7
:10054000160042EA0151C2084007114370470020DB
:100550000146704701F0004330B421F0004150EAF9
:10056000010206D00A0DA2F56072C1F31301002A40
:1005700002DC30BC00207047440F44EAC104C100D3
:10058000E01830BC00EBC25000F047B830B50B4665
:10059000014600202022012409E021FA02F59D42B3
:1005A00005D303FA02F5491B04FA02F52844151E87
:1005B000A2F10102F1DC30BD2DE9F05F054600201B
:1005C00092469B4688460646814640241BE02846C4
:1005D000414647462246FFF7C7FD53465A46C01AD2
:1005E000914110D311461846224600F003FA2D1A05
:1005F00067EB01084F4622460120002100F0FAF97E
:1006000017EB00094E41201EA4F10104DFDC48462F
:1006100031462A464346BDE8F09F0029A8BF7047EF
:10062000401C490008BF20F00100704710B4B0FA28
:1006300080FC00FA0CF050EA010404BF10BC7047C3
:1006400049B1CCF1200421FA04F411FA0CF118BFDD
:10065000012121430843A3EB0C01CB1D4FEA0061AC
:100660004FEA102042BF002010BC704700EBC3507F
:1006700010440029A4BF10BC7047401C490008BFAB
:1006800020F0010010BC704710B5141E73F1000477
:1006900008DA401C41F1000192185B411A4301D174
:1006A00020F0010010BD2DE9F04D92469B4611B19E
:1006B000B1FA81F202E0B0FA80F22032904600F006
:1006C00099F904460F4640EA0A0041EA0B015346F5
:1006D0005A46084313D0114653EA010019D0C8F115
:1006E00040025046FFF740FD05460E46504659462B
:1006F000424600F07FF9084305D0012004E020467F
:100700003946BDE8F08D0020054346EAE0762C43EB
:1007100037430A986305E40AA0EB08000022FD0AAB
:1007200044EA47540A3002D500200146E9E70105B2
:1007300010196941DDE9084500196941BDE8F04D2E
:10074000A2E72DE9FE4F804681EA0300C00F0C4668
:10075000009021F0004123F00045B8EB0200A941D0
:1007600005D24046214690461C460B46024623F0E1
:100770000040104347D0270DC7F30A00C3F30A51C6
:100780000290401A019040286BDAC3F3130040F442
:10079000801B0098924620B10023D2EB030A63EB42
:1007A0000B0B01985946C0F14002504600F022F967
:1007B00006460D4650465946019A00F02AF910EBBC
:1007C00008006141002487EA115284EAE7731A4362
:1007D00040D0009A62B3019A012A4FEA075215DC11
:1007E000001B61EB02014FF0004202EA0752CDE923
:1007F0000042001C41F5801132462B46FFF753FFA3
:1008000003B0BDE8F08F40462146F9E7001B61EBDD
:100810000201001C41F5801300185B412018A2F56D
:10082000001747EB030140EAD570B6196D4111E09E
:100830006D084FEA360645EAC0754FEA0752001BBD
:1008400061EB0201001C41F5801149084FEA3000BC
:100850000019514132462B4603B0BDE8F04FFFF777
:1008600013BF0098012240000023D0EB020263EB8B
:10087000E073009821464FEAE074B8EB000061EBAA
:100880000401E9E783F000435BE781F0004158E7AA
:100890002DE9F04D81EA030404F0004B21F00045FE
:1008A00014464FF0000A23F0004150EA050220D020
:1008B00054EA01021DD0C5F30A570246C5F31303DB
:1008C000C1F31300C1F30A5640F4801543F48013BA
:1008D000A7EB0608101BD64608F2FD3873EB05009F
:1008E00002D308F1010801E092185B41B8F1000F52
:1008F00003DA00200146BDE8F08D00204FF480119E
:10090000064684460EE0171B73EB050705D3121B42
:1009100063EB050306434CEA010C49084FEA30003B
:1009200092185B4150EA0107EDD152EA030012D060
:1009300082EA040083EA0501084305D0101BAB419D
:1009400006D20122002306E000224FF0004302E01D
:100950006FF0010253101AEB06004CEB085110EB3C
:100960000A0041EB0B01BDE8F04DFFF78DBEC1F36E
:100970000A52C1F3130140F2FF3341F480119A424D
:1009800002DA00200146704740F233439A42A2F255
:10099000334202DC5242FFF7E7BB00F02BB8000005
:1009A00030B5041E71F1000404DB4FF000444042F6
:1009B00064EB0101141E73F1000405DB1C464FF0CB
:1009C0000043524263EB0403994208BF904230BD9A
:1009D000064C074D06E0E06840F0010394E807008C
:1009E00098471034AC42F6D3FFF7A6FB68A3000883
:1009F00088A30008202A04DB203A00FA02F1002034
:100A000070479140C2F1200320FA03F3194390404C
:100A10007047202A06DBCB17203A41FA02F043EA5E
:100A2000E07306E041FA02F3D040C2F120029140A7
:100A300008431946704770B58C1810F8015B15F023
:100A4000070301D110F8013B2A1106D110F8012B40
:100A500003E010F8016B01F8016B5B1EF9D12B0765
:100A600005D40023521E0DD401F8013BFAE710F81B
:100A7000013BCB1A921C03E013F8015B01F8015B08
:100A8000521EF9D5A142D8D3002070BD014800F014
:100A9000BFBE00004828002070B504460068816889
:100AA000C943C90717D1816821F00101816001F0B4
:100AB000F9FC05460AE000BF01F0F4FC401B0228E7
:100AC00004D920688068C043C00706D020688068C9
:100AD000C043C007F0D0002070BDA06A40F01000F5
:100AE000A062E06A40F00100E062012070BD10B534
:100AF0000146406A826A12F0500F05D0006A026B0C
:100B0000BDE8104008461047816A41F400718162D7
:100B100001688968C1F3424107290CD1017B51B9B1
:100B2000816A21F480718162816AC90403D4816A77
:100B300041F00101816200F0D1FD10BD10B5406AA5
:100B4000816A41F040018162C16A41F00401C162E1
:100B500000F05DFE10BD10B5406A00F057FE10BDFC
:100B6000F8B500260446009600688168C943C907A5
:100B70002DD0816841F00101816016481649006856
:100B8000B0FBF1F000E0401E00900028FBD101F026
:100B900089FC054616E000BF01F084FC401B0228DA
:100BA00010D920688068C043C0070BD0A06A40F00D
:100BB0001000A062E06A40F00100E06284F8246066
:100BC0000120F8BD20688068C043C007E4D1002040
:100BD000F8BD0000AC05002040420F00184810B5D9
:100BE000002180F88E10A0F88C10164A80F8901022
:100BF00080F88F10B2F8122090F88E305B061B0E32
:100C000080F88E3030F81140944203D943F001034C
:100C100080F88E3030F81140B0F88C30491C2344F5
:100C2000A0F88C300529E7DB90F88E10012221B165
:100C30001F2901D180F88F2010BD80F8902010BDB1
:100C4000F0250020440000202DE9F041154C4FF024
:100C50007E570025C4E90075C4E90257064627619E
:100C6000007DFFF746FC1434A1C4B06964E80805B0
:100C7000A562F069E062307D4043FFF73AFC691EEF
:100C8000FFF7B0FB2063307DFFF733FCC4E90D07AD
:100C90006564C4E90F75A564E56425656565BDE80F
:100CA000F0810000F027002010B50221074801F074
:100CB000E7FB074910B10020087001E0087808B18F
:100CC000002010BD0120087010BD00000008014088
:100CD000E404002010B54FF48051074801F0D0FB28
:100CE000064910B10020487001E0487808B10020A2
:100CF00010BD0120487010BD000C0140E40400202C
:100D0000FEE7002070470020704710B507F0FCFF99
:100D1000002010BD10B5096805F094FD002010BD3D
:100D2000094A10B5D2F8B822D2F814220AB101202B
:100D300010BD0A460146044806F06CFBBDE81040B1
:100D4000014806F0C5BB0000C82C002010B50446C1
:100D50002C210948FFF731FA607D217DB0FBF1F1CC
:100D600005480174A1894160A18981600021417019
:100D70000121017010BD0000C426002070B50D4691
:100D8000044605F0FBFA204605F0E8FA284605F08F
:100D900015FB2846BDE8704005F000BB70B5174D47
:100DA0000646A868FFF7AEFA044615492868FFF71B
:100DB00051FA3146FFF7A6FA2146FFF74BFA4FF0FA
:100DC000FF31FFF70FFB04460E48008DFFF791FB44
:100DD00005462146FFF73EFAFFF790FB06462846F8
:100DE0002146FFF789FAFFF789FB044605F0B0FDBD
:100DF00021B230B2BDE87040FFF7C0BF4400002010
:100E000000004842C426002070B51C4C1C48002538
:100E1000227890F88F10012A15D0022A12D101B33E
:100E2000184802F0E1FF05F093FD00210846FFF7A6
:100E3000A5FF154800F0D2FE04F08EFD134802F025
:100E40009DFF257070BD0D48407821B10028F9D173
:100E50000120607070BD0128FCD1657002202070F7
:100E600070BD0B48807D18B10A48416D006D01E0EE
:100E7000D4E90801BDE87040FFF790BFC426002008
:100E8000F02500202C2A002048280020742A002069
:100E900044000020F027002010B5FFF705FF0128CF
:100EA0000BD106490878022801D2401C00E000203E
:100EB0000870BDE8104005F0B5BD10BD0000002071
:100EC00070B5FFF707FF012839D11D4D1D4C28785B
:100ED00098B1022833D11C4802F086FF1B48192123
:100EE000B0F88C00B0FBF1F06082204608F086F983
:100EF000BDE87040144802F041BF04F007FD1148FE
:100F0000FFF724FF686841F61F4102689162217D66
:100F1000036801EB81024FF0FF3101EB4202DA621C
:100F2000227D02EB820201EB4201C16002F026FF4A
:100F3000B4F90C10BDE870400846FFF71FBF70BD44
:100F40000000002044000020742A0020F02500202A
:100F500070B51C4CD4F82802012805D0D4F8200222
:100F6000D4F8241288422BD0D4F8200204EB80005D
:100F7000D0F80012D4F8200204EB801007F0DAFC5D
:100F800000281DD0D4F820020025072809D0D4F865
:100F90002002401CC4F82002D4F82802012803D003
:100FA0000CE0C4F82052F7E7D4F8240204EB8011D7
:100FB000054806F029FA044806F00AFAC4F828524F
:100FC00070BD000084210020C82C002010B5184CF2
:100FD000D4F85404012802D116A008F003FAD4F87A
:100FE0005404012805D0D4F84C04D4F85014884295
:100FF0001AD0D4F84C0404EB8000D0F82C14D4F8A8
:101000004C0404EB801000F50B7005F04FFCD4F895
:101010004C140020072908D0D4F84C14491CC4F8FB
:101020004C1400BFC4F8540410BDC4F84C04F9E7D4
:101030008421002055617274205478206F76657287
:10104000666C6F77210A00002DE9F0410025A84663
:10105000204E214F37E000BFC5EBC50000EB8000FC
:1010600006EB8014D4F85404012802D11BA008F028
:10107000B9F9D4F85404012805D0D4F84C04D4F8B4
:10108000501488421ED0D4F84C0404EB8000D0F8F1
:101090000C34D4F84C04D4F858C404EB801294F8FF
:1010A000BC080C32D4F8B818E04700280ED0D4F8A9
:1010B0004C040F280CD0D4F84C04401CC4F84C0449
:1010C000C4F854846D1C38788542C5DBBDE8F081D6
:1010D0004046F3E7440700202E000020556172745B
:1010E000205278206F766572666C6F77210A000057
:1010F0002DE9F04100251E4E1E4F33E0C5EBC50023
:1011000000EB800006EB8014D4F8A808012828D052
:10111000D4F8A408012802D117A008F063F9D4F884
:10112000A408012805D0D4F89C08D4F8A018884257
:1011300017D0D4F89C08D4F89C1804EB8000D0F8A1
:101140005C08D4F8B42804EB81110244C4F8B42834
:1011500082B201F25C41206803F0D8FC0120C4F89F
:10116000A8086D1C38788542C8DBBDE8F081000016
:10117000440700202E00002055617274205478200E
:101180006F766572666C6F77210A00002DE9F04179
:1011900000270F4E80463C4604EB440000EBC400A1
:1011A00006EB80052846FFF731F8024628464146FF
:1011B000FFF741F828B1641C192CEDD33846BDE87F
:1011C000F08104EB440000EBC40006EB8000F6E77E
:1011D0007C000020014800F0EBBD000078280020D2
:1011E000014800F0E5BD0000602C0020014800F03F
:1011F000DFBD00001C2C0020014800F0D9BD00001C
:1012000010290020014800F0D3BD0000942B0020DD
:10121000014800F0CDBD0000D82B002030B590F87B
:1012200040500124AC40C56B6C6004686360436847
:10123000102B036803D099600068C26030BD9A60CB
:101240000068C16030BD70472DE9FF410546102799
:10125000002401200097CDE9010402201D4E0390D7
:101260006946304601F010F800221021304601F0A6
:1012700014F900222021304601F00FF9642000F01B
:1012800031FF012D13D000221021304601F005F965
:10129000642000F027FF01222021304601F0FDF8F4
:1012A0004FF4FA7000F01EFF012D02D008E0012279
:1012B000EAE7CDE9007469463046029400F0E4FFA5
:1012C00001221021304601F0E8F8642000F00AFF06
:1012D000BDE8FF810010014000B591B0012204215A
:1012E000214801F0DAF8642000F0FCFE1F490120DB
:1012F000002208704A70FFF7A7FF642000F0F2FE9A
:1013000020221B496846FEF73FFF19492022203161
:1013100008A8FEF739FF17496846FEF759FF16A1DE
:101320006846FEF755FF134908A8C91DFEF750FF90
:1013300011A108A8FEF74CFF6846FEF767FF82B2CE
:10134000642369460D4803F094FB4FF4FA7000F0F3
:10135000C9FE08A8FEF75AFF82B2642308A907480D
:1013600003F087FB11B000BD000C01402C000020F1
:1013700014A000086C00002026000000BC2A0020F9
:10138000044910B5C0B20870FFF75EFFBDE8104019
:1013900008F0DCBC2C000020102000F069BF2020E9
:1013A00000F066BF30B585B00C46054600F04AFF38
:1013B000002002950090CDE9034004A9684600F0A2
:1013C000A3FE00F0F5FE05B030BD72B6FEE70000EA
:1013D00006490020C8610648016941F00401016125
:1013E000016941F04001016170470000A82C002014
:1013F00000200240064A0021D16106490A6942F0F4
:1014000002020A614861086940F0400008617047C3
:10141000A82C002000200240044B0022DA61044A7C
:10142000136943F00103136101807047A82C002069
:101430000020024014480022C168CB06134904D59D
:10144000CA6942F00202CA611022C3685B0705D56F
:10145000CB6943F00103CB6142F00402C369DB07AF
:1014600007D0CB6943F00403CB61C16921F00101CE
:10147000C161A2F58071013901D0C2607047C169B4
:1014800021F00101C161704700200240A82C00201A
:1014900070B5054601F006F80646114C09E0681CD7
:1014A00007D025B100F0FEFF801BA84201D9032020
:1014B00070BDE068C007F2D1E068800601D5202049
:1014C000E060E068C00605D4E069C00702D1E068CA
:1014D000400703D5FFF7AEFF012070BD002070BDAF
:1014E0000020024030B52E498BB000200A7801461A
:1014F00062F307012A4A521E127862F30F21284A2A
:10150000921E127862F31741254AD21E127862F3B6
:101510001F61234A121F1378024663F30702204B10
:101520005B1F1B7863F30F221D4B9B1F1B7863F31C
:1015300017421B4BDB1F1B7863F31F62184B083BE2
:101540001B7863F30700164B093B1B7863F30F20EE
:10155000134B0A3B1B78124C63F317400B3C247867
:10156000030CC0F30725C0B2CDE90834CDE9060568
:10157000100EC2F30743C2F30724D2B2CDE9043000
:10158000CDE90224080EC1F30742CDE90020C1F3E2
:101590000723CAB203A1104807F034FF0BB030BDD7
:1015A000F3F7FF1F25303258253032582530325896
:1015B00025303258253032582530325825303258AF
:1015C000253032582530325825303258253032589F
:1015D0002530325800000000280700207047000026
:1015E000F8B50024009490F824202546012A12D052
:1015F000012280F824204A681F23072A0DD206689A
:10160000776B521E02EB820293409F430B6893401C
:101610001F43776319E00220F8BD06680D2A0AD23D
:10162000376BD21F02EB820293409F430B689340BB
:101630001F43376309E0F76A0D3A02EB82029340D9
:101640009F430B6893401F43F7620A6807230668AD
:101650000A2A0AD3F7680A3A02EB420293409F43F0
:101660008B6893401F43F76008E0376902EB420242
:1016700093409F438B6893401F4337610A68102A49
:1016800001D0112A20D1124B02689A4217D19368D7
:101690001B0219D4936843F400039360096810296E
:1016A00012D10C490C4A0968B1FBF2F101EB81013E
:1016B000490000E0491E00910029FBD104E0816A45
:1016C00041F020018162012480F824502046F8BDB9
:1016D00000240140AC05002040420F002DE9F047F6
:1016E000FFF77CFA4448454C454D90F890104FF078
:1016F0000009012902D12178022918D0C5F80C90DF
:1017000090F88E10804600EB81003D4EC7686069FE
:10171000381A1036B17DC1B1FEF7E2FE8246384676
:10172000FEF7DEFE327D514604F04CF913E0E96825
:10173000642907D905F00CF9BDE8F04731480146A6
:10174000FFF71CBB491CE960DAE7A1690844A06106
:10175000E0693844E06198F88E1008EB8100C168B8
:1017600061616868401C686094F81080804502D10F
:10177000254A12782AB1804501D2C5F80490BDE807
:10178000F087C5F80490A8684F4621B1C82810D941
:101790004FF6A85013E0B0F5967F02D9F089208566
:1017A0000FE0C82802D9F18964392185401CA8605E
:1017B00007E0642802D94FF6706000E0308A208587
:1017C000AF60707DFEF795FE0546A069FEF788FEC6
:1017D0002946FEF7C9FD60624046FEF78AFE0546CF
:1017E000E069FEF77DFE2946FEF7BEFD2062FFF7A9
:1017F0000BFBA761E761C2E7F0250020C4260020AB
:1018000034000020D4FEFFFF000000207047704726
:1018100070B50446006806684568A90625D5B10775
:1018200023D5A16AC90603D4A16A41F40071A1625B
:101830008168C1F34241072910D1217B71B9416808
:1018400021F020014160A06A20F48070A062A06AAB
:10185000C00403D4A06A40F00100A0622046FFF754
:101860003DFF21686FF01200086028062ED5700732
:101870002CD5A06AC00603D4A06A40F40050A06230
:1018800020688168C1F30231072909D04168490500
:1018900015D48168C1F34241072910D1217B71B968
:1018A000416821F080014160A06A20F48050A0626C
:1018B000A06AC00503D4A06A40F00100A0622046DF
:1018C000FFF78CFE21686FF00C00086068060CD5ED
:1018D000F0070AD0A06A40F48030A062204600F0F1
:1018E00095F821686FF00100086070BD2DE9F041A6
:1018F00004004FF000057FD0A06A002628B9E662F8
:1019000084F82460204600F083F82046FFF7C4F8EE
:10191000A16AC90600D420B1A06A40F01000A062FC
:101920006AE0A16A21F4885141F00201A1623349C1
:1019300023688B42E16904D1B1F5402F01D14FF406
:101940000021277B4FF4807C41EA470261680A430B
:10195000A168614508D0012906D0002194F814E05F
:10196000BEF1010F02D00AE06146F7E7C7B1A76AEE
:1019700047F02007A762E76A47F00107E7625F6860
:1019800027F469470F435F60236899681C4F39400B
:1019900011439960A16861450BD0012909D00CE081
:1019A000DFF860E0A7690EEB47370F4347F40061AB
:1019B000E5E7218A0D05A5F580152168CB6A23F49A
:1019C00070032B43CB62216889680F4B1940914209
:1019D00008D1E662A16A21F0020141F00101A16291
:1019E000BDE8F081A06A20F0020040F01000A06283
:1019F000E06A40F00100E0620120F1E7003C0140B4
:101A0000FDF7E1FF00E0FFFFFE0E1FFF7047000043
:101A100070B586B0002506460095019502950395A0
:101A200000682549884244D12449886940F40070FF
:101A30008861886900F400700490886940F01000A3
:101A40008861886900F010000490886940F0040003
:101A500088618869032400F0040004900F20CDE918
:101A600000046946164800F00FFC0120CDE900048F
:101A70006946144800F008FC144C1348C4E90005FA
:101A80008020C4E90250400020618000C4E90505BF
:101A90002046E56100F0B0FA08B1FFF796FC346229
:101AA000002203211220666201F094F8122001F056
:101AB00083F806B070BD0000002401400010024011
:101AC0000010014000080140080002407828002072
:101AD0002DE9F047894604463B4900683B4F0E1DFF
:101AE0009046884201D0B84207D1306810F4702F78
:101AF00003D001252846BDE8F08794F8240001288A
:101B00000CD0012084F824002046FFF729F80500B6
:101B10004FF0000004D084F82400EBE70220EAE74D
:101B2000A16A40F60162914341F48071A16221688B
:101B3000B94218D1326812F4702F14D0A16A41F45E
:101B40008011A1623168490505D5A16A21F40051CF
:101B500041F48051A162A16AC9040AD5E16A21F069
:101B60000601E16206E0A26A22F48012A2624968DC
:101B7000E9E7E06284F82400216A15488862216A56
:101B80001448C862216A1448086321686FF0020093
:101B900008602068816841F4807181602168434653
:101BA0004A464C31206A00F065FA20688168C1F32A
:101BB00042410729816803D041F48011816099E78F
:101BC00041F4A001FAE70000002401400028014090
:101BD000EF0A0008570B00083D0B000810B504463B
:101BE00090F82400012807D0012084F82400204622
:101BF000FEF752FF10B113E0022010BD21688A6881
:101C000022F480728A60216A91F82120022A07D189
:101C1000084600F00EF8A16A30B141F04001A1621F
:101C2000002184F8241010BD21F4885141F00101F5
:101C3000F5E710B590F821100022022905D0042103
:101C4000816380F82020012010BD01680B6823F01B
:101C50000E030B6001680B6823F001030B6090F822
:101C60004030C46B012101FA03F3636080F8211056
:101C700080F82020104610BD2DE9F05F90F821106B
:101C80000024022903D004218163012485E0016836
:101C90000A6822F00E020A6001680A6822F0010256
:101CA0000A603F4E3E4FB215DFF8F4C0DFF8F09007
:101CB000DFF8ECA0DFF8E8B0DFF8E4E00168783F97
:101CC00013011502ACF1640CA9F15009AAF13C0A08
:101CD000ABF1280BAEF1140E4FF48018B14227D9A6
:101CE000B9420ED0614512D049451DD0514518D09A
:101CF000594518D0714501D1424615E0294EB142EF
:101D000001D1012210E0274E1436B14201D1102238
:101D10000AE0244E2836B14206D0224A3C32914293
:101D200001D11A4600E02A461E49091F0A602BE02D
:101D3000B94213D0614517D0494522D051451DD035
:101D400059451DD0714501D142461AE0B14202D138
:101D50004FF0807215E0134EB14201D1012210E024
:101D6000104E1436B14201D110220AE00D4E283631
:101D7000B14206D00B4A3C32914201D11A4600E0F2
:101D80002A46074980394A60012180F82110002144
:101D900080F82010416B01B188472046BDE8F09FD4
:101DA000800002400804024090F8210070470000C3
:101DB0002DE9F05FC16B0A6801680B68046C4FF095
:101DC000040808FA04F8844D844E854FDFF814C2E5
:101DD000DFF81492DFF814A2DFF814B2DFF814E28F
:101DE00018EA020F65D05FEA437862D50A68920666
:101DF00003D40A6822F004020A60DFF8F0814FF48D
:101E00008062016808F1140813011402414524D9C5
:101E1000A9420DD0B1420FD0B9421AD0614515D0B8
:101E2000494515D0514501D1120312E0594501D160
:101E300004220EE0714501D140220AE06D4D1435B7
:101E4000A94206D06B4A2832914201D11A4600E0DD
:101E500022466749091F0A6029E0A94213D0B1420E
:101E600015D0B94220D061451BD049451BD0514502
:101E700002D14FF4800217E0414502D14FF0806259
:101E800012E0594501D104220EE0714501D14022F2
:101E90000AE0584D1435A94206D0564A28329142DC
:101EA00001D11A4600E022464B4908394A60C16A0E
:101EB00071E04FF0020808FA04F818EA020F70D037
:101EC0005FEA83786DD50A68920606D40A6822F024
:101ED0000A020A60012180F82110DFF810814FF416
:101EE0000072016808F1140813011402414524D955
:101EF000A9420DD0B1420FD0B9421AD0614515D0D8
:101F0000494515D0514501D1120312E0594501D17F
:101F100002220EE0714501D120220AE0354D143530
:101F2000A94206D0334A2832914201D11A4600E034
:101F300022462F49091F0A6029E0A94213D0B14265
:101F400015D0B94220D061451BD049451BD0514521
:101F500002D14FF4001217E0414502D14FF0007258
:101F600012E0594501D102220EE0714501D1202233
:101F70000AE0204D1435A94206D01E4A283291426B
:101F800001D11A4600E02246134908394A6000216F
:101F900080F82010816A00291CD0BDE8F05F084756
:101FA000FFE70825A540154214D01A0712D50A6884
:101FB00022F00E020A6090F84020C36B012101FA62
:101FC00002F25A60816380F82110002180F820100D
:101FD000016BE0E7BDE8F09F080002401C000240F2
:101FE0003000024044000240580002406C000240B1
:101FF000080402401C04024030B560B11A4B02686C
:1020000014219A4209D2194B1344B3FBF1F1890010
:10201000016417490AE0012030BD134B5B421344B1
:10202000B3FBF1F1890001640F490839C163022152
:1020300080F82110136843F6F0718B43F0E9011426
:102040002143D0E902452C432143046921434469DB
:102050002143846921431943116000214163012216
:1020600042770177084630BD08040240F8FFFDBF03
:102070000000024070B5044690F8200000250128B9
:102080000CD0012084F8200094F821600020012E5B
:1020900006D084F820000225284670BD022070BDBD
:1020A000022684F82160A0632068066826F00106F5
:1020B00006602046FFF7B2F8E06A00282068016851
:1020C00002D041F00E0106E021F004010160206819
:1020D000016841F00A0101602068016841F00101D6
:1020E0000160D9E770B5044600F0DCF90546601CD4
:1020F00002D004480078044400F0D4F9401BA04208
:10210000FAD370BDA00500202DE9F047054626480A
:102110000F460126017E01290FD00121814601765B
:102120002868DFF888804CF25034022808D0A24694
:102130002046FFF7ADF9A8B131E00220BDE8F087F5
:102140002046FFF7A5F908BB0120FFF741F920461B
:10215000FFF79EF9D8F81010064621F00401C8F8E0
:1021600010101CE04FF0FF303860AC6811E02046E2
:10217000FFF740F95046FFF78BF9D8F8101006002A
:1021800021F00201C8F8101001D03C6007E004F50E
:102190000064D5E9020100EBC120A042E7D800218C
:1021A00089F818103046C9E7A82C0020002002400A
:1021B0000348016941F0800101610020704700007F
:1021C000002002402DE9F05F07461C4888460024A5
:1021D000017E15461E46012909D00121814601765E
:1021E0004CF2503A5046FFF753F918B122E0022062
:1021F000BDE8F09F012F02D0022F00D00427D34664
:10220000DFF83CA0220128463146FDF7ADFF81B240
:1022100008EB4400FFF700F95846FFF739F9DAF800
:10222000102022F00102CAF8102018B9641CE4B290
:10223000BC42E7D3002289F81820D9E7A82C002057
:1022400000200240064900200A69120607D5054A07
:102250004A60054A4A600969090600D501207047AD
:102260000020024023016745AB89EFCD7047000095
:10227000044910B50A68024202D00860FFF7F6FF71
:1022800010BD0000140401402DE9F84FDFF8C8919B
:102290000024A9F1040B23460F2709F1040AABF12E
:1022A000040ED1E00125A54006EA0502AA4276D136
:1022B000DFF8A8C14E68A6EB0C0866452BD00DDCF4
:1022C000032E34D005DC36B3012E19D0022E2FD1C7
:1022D0001BE0112E16D0122E2AD119E0B8F5881F56
:1022E00019D006DCB8F5803F15D0B8F5801F1FD196
:1022F00011E0B8F5001F0ED0B8F5041F18D10AE0A0
:10230000CB6815E0CB681B1D12E0CB6808330FE0EB
:10231000CB680C330CE08B682BB1012B4FF008031A
:1023200003D0456104E0042302E0056100E00023DE
:10233000FF2A01D8064601E000F104064FEA8405B1
:1023400001D9A5F12005D6F8008007FA05FC28EA96
:102350000C0803FA05F548EA0508C6F800804D6840
:10236000ED0070D53E4DAE6946F00106AE61AD6937
:1023700024F0030605F0010500953A4D06EB050C27
:10238000DCF80850A607360F07FA06F825EA080514
:10239000DFF8D480404503D14FF0000825E052E03B
:1023A000DFF8C880404502D14FF001081DE0DFF89A
:1023B000C080404502D14FF0020816E0DFF8B4803B
:1023C000404502D14FF003080FE0DFF8AC804045F4
:1023D00002D14FF0040808E0DFF8A080404502D1A8
:1023E0004FF0050801E04FF0060808FA06F848EA41
:1023F0000508CCF808804D68D9F80060ED024D461C
:1024000001D5164300E096432E604D68DAF800606F
:10241000AD02554601D5164300E096432E604D6847
:10242000DBF80060AD035D4601D5164300E096433E
:102430002E604D68DEF80060ED03754601D5164349
:1024400000E096432E60641C0A681646E2407FF462
:1024500029AFBDE8F88F000008040140000011100A
:10246000001002400000014000080140000C014043
:10247000001001400014014000180140001C014000
:102480008068084000D001207047C26821EA02033A
:102490000A4043EA0241016170470AB10161704795
:1024A0000904FBE70148806870470000A005002090
:1024B000704770472DE9F047026800215368C66AEB
:1024C00090F83E4090F83D50102C12D0402C10D087
:1024D000046C002C7DD05469E443A6077AD4DE4313
:1024E000B60577D4036C03B19169BDE8F04703F0FA
:1024F00069B8976951694FF42A0CC9435FEAC178FA
:102500004FF02A4904D066452AD04E4528D010E025
:10251000DE43B6050DD4C16A614501D1012103E056
:10252000C16A494501D10821C162BDE8F04702F006
:102530005BBF0E0716D4DE43B60513D4416CC9B297
:102540001161416B09B1896A29B9816B002907D0F2
:10255000896A002904D00068416841F40061416043
:10256000BDE8F0878E0706D4DE43B60503D4BDE888
:10257000F04702F08DBEFE43526876074FEA0252E2
:102580001DD4002AECDB0A0608D4DA43520505D430
:10259000490705D5BDE8F04702F01EBE4907DFD464
:1025A000D9438905DCD4212D05D0402CD8D1BDE8F4
:1025B000F04702F05FBFBDE8F04702F0CBBD002A54
:1025C000CEDB4A060BD4DA43520508D4490708D5B6
:1025D00001E00DE00EE0BDE8F04702F047BD49071D
:1025E000BED4D9438905BBD4BDE8F04702F0D5BCC1
:1025F000916970E7E10606D4D943890503D4BDE8A3
:10260000F04703F003B82821212D27D0292D25D00C
:10261000650655D4DD436D0552D4640752D590F854
:102620003D30448D002C9BD01269446A2270426A6E
:10263000521C4262428D521E4285428D002A8FD129
:102640002A2B8DD10268536823F4806353602222C1
:10265000026380F83D1000F055FA81E7250623D487
:10266000DD436D0520D4640720D590F83D30448DBE
:10267000002CF2D0446A24781461426A521C4262EF
:10268000428D521E4285428D002AE6D1292BE4D18B
:102690000268536823F4806353602122026380F848
:1026A0003D1000F030FA5BE76107D6D4D9438905C5
:1026B000D3D4418D0029D0D0416A097811610AE054
:1026C0006107CAD4D9438905C7D4418D0029C4D034
:1026D0001169426A1170416A491C4162418D491E6B
:1026E00041853DE77047000070B5040025D094F89F
:1026F0003D00002520B984F83C50204600F0B2F996
:10270000242084F83D002068016821F00101016067
:102710002068016841F4004101602068016821F4EB
:102720000041016001F050F84D4A6168914201D8C2
:102730004C4900E04C49884201D2012070BD4B4910
:102740002368B0FBF1F15E6826F03F060E435E6041
:102750006368934206D94FF4967359434FF47A73E2
:10276000B1FBF3F12368491C1E6A26F03F06314392
:1027700019626168914210D84900401EB0FBF1F225
:10278000521CC2F30B02042A01D2042022E0B0FB47
:10279000F1F0401CC0F30B001CE0A268F2B301EBA7
:1027A000C10303EB0116431EB3FBF6F35B1C43F4BA
:1027B00080431B0549D092B301EBC10202EB01112A
:1027C000401EB0FBF1F0401CC0F30B0040F4804011
:1027D00040F400402168CA694CF6FF739A431043E5
:1027E000C861D4E9071001432068026822F0C002E2
:1027F00011430160D4E9030101432068826848F273
:10280000FF339A4311438160D4E9050108432168ED
:10281000CA6822F0FF021043C86001E00EE016E033
:102820002068016841F0010101602564202084F8DE
:102830003D00256384F83E50002070BD01EB410649
:10284000431EB3FBF6F35B1CB3E70120C2E701EBC9
:102850004101401EB0FBF1F0401CC0F30B00B7E794
:10286000A086010080841E0000093D0040420F0048
:1028700070477047704770471CB514490C7808467C
:10288000032380228068012C08D0022C12D0032C54
:1028900007D0042C01D1002008701CBD0B700C491E
:1028A0000CE002220A700949091DCDE90013012339
:1028B000002207E004230B7005498031CDE90012A6
:1028C00001234022782100F005F81CBDC804002037
:1028D000F02600202DE9FC5F0025984691468A46A7
:1028E0000446DDF830B00095FFF7DCFD074694F8AC
:1028F0003D00202828D1574846F2A811202600681C
:10290000B0FBF1F000EBC00101EB0010009000986B
:10291000401E009010D020688069C0438007F6D523
:1029200094F83C0001280FD0012084F83C00206876
:102930000168C9070BD00EE044F8305F6673A573D9
:10294000206940F0200020610220BDE8FC9F016862
:1029500041F0010101602068016821F4006101601B
:10296000212084F83D00402084F83E002564C4F80E
:1029700024B00D986085608D20853748E062C4F8EA
:1029800044A0C4F84890C4F84C802565208DE8B375
:10299000606BF0B131498162616B31480863606BF3
:1029A000C562606B45632268238D1032616A606B7B
:1029B000FFF760FBB0B184F83D6084F83E5054F8F6
:1029C000400F40F0100000BF44F8040925700120BA
:1029D000BBE784F83D6084F83E5054F8400F40F067
:1029E0008000F1E72320CDE9000743464A465146DF
:1029F000204602F093FD98B1606BFFF73DF9606BE4
:102A000085622068016821F4806100E019E00160BE
:102A1000258565852068016821F001010160D6E700
:102A2000206841698169009184F83C50416841F413
:102A3000807141602068416841F40061416000207C
:102A400083E784F83D6084F83E5054F8400F40F02E
:102A50004000B9E7AC0500200000FFFFFB4C000878
:102A6000C54C000870B586B0002506460095019556
:102A70000295039500681E49884237D11D4CA06914
:102A800040F00800A061A069694600F008000490C9
:102A90004FF44060009012200190032003901648EC
:102AA000FFF7F2FBE06940F48000E061E069144C5C
:102AB00000F480000490114820601020C4E9010552
:102AC0008020C4E903056561A5612046E561FFF743
:102AD00093FA08B1FEF779FC7463002208212120E3
:102AE000666200F077F8212000F066F806B070BD4D
:102AF0000058004000100240000C01404400024019
:102B000010290020704770470248816802781144FC
:102B100081607047A0050020074810B5016841F0AA
:102B200010010160032000F075F80E2000F006F897
:102B300000F024F8002010BD0020024070B50D4DBB
:102B400004464FF47A712878B1FBF0F00A4909681D
:102B5000B1FBF0F001F00EF848B9102C07D20022BA
:102B60002146501E00F036F800206C6070BD012038
:102B700070BD0000A0050020AC0500200C4808B581
:102B8000816941F001018161816901F001010091D8
:102B9000C16941F08051C161C06900F0805000906E
:102BA0000448416821F0E06141F00071416008BDD6
:102BB0000010024000000140002809DB00F01F0265
:102BC000012191404009800000F1E020C0F800118F
:102BD00070470000F0B40E4B1B680C46C3F3022391
:102BE000C3F10705042D00D90425191D072901D2B9
:102BF000002300E0DB1E012606FA05F1491E2140F4
:102C000099409E40761E16403143F0BC06F00EBC43
:102C10000CED00E0064900F0070208684FF6FF03DC
:102C2000184040EA0220034A104308607047000041
:102C30000CED00E00000FA0510B50C0607D501F018
:102C4000070101EB810100EBC100283005E001EB39
:102C5000810100EBC10000F5B47099B232B10122DC
:102C600002730181190C4181002010BD0022027302
:102C7000C180F9E7704701EB810200EBC202D0F896
:102C8000EC02D26B04F0D3BD01EB810200EBC20277
:102C9000D0F8EC02D2F87C2104F02CBE70B50446CA
:102CA0000B0601F0070000EB800104EBC1014FF0BF
:102CB00001024FF0000503D581F82920283103E0F7
:102CC00081F8695101F5B471087094F8A8020128DF
:102CD00008D084F8A822206805F0A0FA84F8A85249
:102CE000002070BD022070BD70B5044601F00F00D9
:102CF0006268904201D9012070BD0B0601F0070007
:102D000000EB800104EBC1014FF001024FF0000520
:102D100003D581F82920283103E081F8695101F5B4
:102D2000B4718D70087094F8A802012808D084F856
:102D3000A822206805F00FFB84F8A852002070BD7F
:102D4000022070BD2DE9F05F04685FEA424C0B7809
:102D50008D69B4F850C04FF000064BF68F7948F2F9
:102D6000800A48F68F7B48F2C00E4FF480672AD560
:102D70004FF0020808EBC308C44407EB4C07E45BC0
:102D8000C4F30904A54203D32D1B8D6101D00BE0D0
:102D90008E61066836F8235005EA090585F400556A
:102DA00045EA0A0526F82350520609D50D7803682E
:102DB00033F8252002EA0B0242EA0E0223F825200E
:102DC00084B30A8929E04FF0060808EBC308C4441D
:102DD00007EB4C07E45BC4F30904A54203D32D1BA6
:102DE0008D6101D00BE08E61066836F8235005EA4C
:102DF000090585F4005545EA0A0526F823505206D0
:102E000009D40B78056835F8232002EA0B0242EA60
:102E10000E0225F823202CB14A894969006823460F
:102E200005F072FD2046BDE8F09F2DE9F05F0546F4
:102E300000680C465FEA426C16468B692278B0F84F
:102E400050C048F68F774CF280094FF4004B4FF694
:102E5000FF7E4FF4806A4FF0000172D54FF00208F8
:102E600008EBC208E0440AEB480C30F80C00C0F351
:102E70000900834211D91B1AA3610FD0730407D52F
:102E80002E6836F822303B4043EA090326F8223008
:102E900094F82420012A47D052E1A161607810B152
:102EA000012813D01AE02868B0F85030184400EB1D
:102EB0000210B0F80424C2F30902A0F80424B0F808
:102EC000042442F40042A0F8042407E02868B0F883
:102ED0005030184400EB0210A0F8041462782868FF
:102EE00012B1012A11D018E0B0F85010084421782E
:102EF00000EB0110B0F80C14C1F30901A0F80C1498
:102F0000B0F80C1441F4004105E0B0F85020104432
:102F1000227800EB0210A0F80C1421782846FFF765
:102F2000AAFE700472D40BE1626902446261E26934
:102F30000244E2612369226A9A4203D31846111AB5
:102F400004E03EE084F824100AB110462162617862
:102F500011B1012929D031E02968B1F8502011447C
:102F6000227801EB0211B1F80424C2F30902A1F89E
:102F7000042401F204413E2807D94209C30600D1C6
:102F8000521E0B884BEA822207E048B14208C30771
:102F900000D0521C0B880EEA822213430B800DE0F6
:102FA0000A8842F400420A8008E02968B1F85020FB
:102FB0001144227801EB0211A1F8040483B22289A2
:102FC000BAE04FF0060808EBC208E0440AEB480CF0
:102FD00030F80C00C0F30900834211D31B1AA3611F
:102FE0000FD0730407D42E6836F822303B4043EAF2
:102FF000090326F8223094F82420012A51D09FE0BA
:10300000A161607818B1012814D01BE03FE0286866
:10301000B0F85030184400EB0210B0F80424C2F3AA
:103020000902A0F80424B0F8042442F40042A0F8F5
:10303000042407E02868B0F85030184400EB021070
:10304000A0F804146278286812B1012A11D018E09F
:10305000B0F850100844217800EB0110B0F80C14BF
:10306000C1F30901A0F80C14B0F80C1441F40041AC
:1030700005E0B0F850201044227800EB0210A0F8D0
:103080000C1421782846FFF7F6FD700458D42278F6
:10309000296831F82200384040EA090021F822006E
:1030A0004EE0626902446261E2690244E2612369BE
:1030B000226A9A4203D31846111A216204E00AB127
:1030C0001046216284F824106278296812B1012A1E
:1030D00028D02FE0B1F850201144227801EB0211E2
:1030E000B1F80C24C2F30902A1F80C2401F20C413E
:1030F0003E2807D94209C30600D1521E0B884BEA6D
:10310000822207E048B14208C30700D0521C0B8856
:103110000EEA822213430B800CE00A8842F400423C
:103120000A8007E0B1F850201144227801EB021127
:10313000A1F80C04628983B26169286805F070FC0B
:103140002278296831F8220048F6BF73184080F0D1
:10315000300048F28003184321F822000020BDE827
:10316000F09F01F0070101EB810100EBC100D0F8F5
:10317000840170472DE9F04104460F0601F0070075
:1031800000EB800104EBC1014FF001064FF0000598
:1031900003D581F82960283103E081F8695101F5F0
:1031A000B471022B08700A61CB7000D10D7194F8D4
:1031B000A802012809D084F8A862206804F0DEFE85
:1031C000284684F8A852BDE8F0810220FBE710B53C
:1031D00001F0070404EB840100EBC101C1E95F23A6
:1031E0000022C1F8842181F8692181F868410068D2
:1031F00001F5B47105F004F9002010BD70B5044666
:103200000D4601F007006168884201D9012070BDB8
:1032100029064FF000064FF0010207D500EB8001B0
:1032200004EBC10181F82920283107E005EB850175
:1032300004EBC10181F8696101F5B4718A7008700D
:1032400094F8A802012807D084F8A822206805F085
:10325000BEF8680702D006E0022070BD04F52C71AC
:10326000206805F076F884F8A862002070BD10B5DB
:1032700001F0070404EB840100EBC101C1E90F2355
:10328000012281F84C208B6400234B6481F82920B3
:1032900001F8284F006805F0B3F8002010BD0000C9
:1032A0001FB50446006805F02BFB010403D520463A
:1032B00003F0F1F81FBD41050DD5206830F8441F1B
:1032C00021F480610180204600F010F900212046A1
:1032D00000F027F91FBD410405D5206830F8441FD0
:1032E00021F4804174E0810405D5206830F8441F42
:1032F00021F400516CE0C10414D5206830F8401F5F
:1033000021F004010180206830F8401F21F00801FD
:103310000180204600F0FDF8206830F8441F21F4B9
:10332000805155E0010540D5D4F8002000206946C1
:1033300032F8203021F81030401CC0B20828F7D3F2
:1033400032F8400F40F001001080206830F8402F24
:1033500022F0010202802068B0F844205205FBD51B
:1033600030F8442F22F4806202800020236831F874
:10337000102023F82020401CC0B20828F6D3206873
:1033800030F8401F41F008010180206830F8441FE8
:1033900021F400610180206830F8401F41F00401F1
:1033A0000180204600F0F2F81FBD810509D5206894
:1033B00030F8441F21F400710180204600F0ADF880
:1033C0001FBDC005FCD5206830F8441F21F4807172
:1033D00001801FBD2DE9F04186B0040004D094F8AF
:1033E000A902002520B108E0012006B0BDE8F08167
:1033F00084F8A852204600F05BF8032084F8A90264
:10340000206804F09FFF04F11001142288466846EA
:10341000FCF7BAFE94E80F0004F0FEFE0227D0BBD2
:103420000021206805F0F4FA002001260EE000BF1C
:1034300000EB800104EBC10181F8296001F8280F3D
:10344000401CCD700D614D61C0B28D6161688142DB
:10345000EED8002012E000BF00EB800104EBC101B8
:1034600081F8695181F8680181F86B51C1F8785190
:10347000C1F87C51401CC0B2C1F8805161688142E2
:10348000EAD8142241466846FCF77EFE94E80F0015
:1034900004F04FFF10B184F8A972A5E784F8245016
:1034A00084F8A962206804F042FF00209DE7000034
:1034B00008B500680B49884212D10B48C16941F434
:1034C0000001C161C069002200F4000000901146B3
:1034D0001420FFF77FFBBDE808401420FFF76CBB0A
:1034E00008BD0000005C00400010024070B50446BA
:1034F00080680125022801D0FDF767FF2946D4F82E
:10350000EC0204F0E0FAD4F8EC02BDE8704004F0FC
:103510009CBAD0F8EC0204F0C0BAD0F8EC0204F087
:10352000C6BA10B5044690F8A80201280BD00120B5
:1035300084F8A80284F82410206805F06BFA0020B3
:1035400084F8A80210BD022010BDD0F8EC2200F5CE
:103550002C71104604F0C3BA10B5044690F8A802C6
:10356000012810D0012084F8A802206805F0B9F9DC
:1035700001212046FFF77EFB206804F0D6FE0020E4
:1035800084F8A80210BD022010BD000010B504464A
:10359000D0F8EC0204F0E2FAA069002804D0034855
:1035A000016841F00601016010BD000010ED00E06F
:1035B0002DE9F84305460078354CC00754D0E06942
:1035C0000026C00008D4E06940F08050E061E06966
:1035D000012600F0805000902E480168C90512D4E1
:1035E0000168804641F480710160FEF75BFF074689
:1035F00005E000BFFEF756FFC01B642823D8D8F8AB
:103600000000C005F6D5206A10F4407021D0A988CA
:1036100001F4407181421CD0206A1F49012220F42C
:1036200040700A6000220A602062C00711D0FEF7D5
:1036300039FF074641F2883808E000BFFEF732FF45
:10364000C11B414502D90320BDE8F883206A8007E9
:10365000F4D5206A696820F44070084320621EB1E6
:10366000E06920F08050E0612878800705D5606827
:10367000A96820F44040084360602878C00605D55A
:103680006068696920F48000084360600020DBE71F
:103690000010024000700040400442422DE9F04713
:1036A0000F46050061D0434E306800F00700B84275
:1036B00009D2306820F0070038433060306800F0ED
:1036C0000700B84251D128683B4C810712D540070A
:1036D00003D5606840F4E06060602878000703D597
:1036E000606840F4605060606068A96820F0F00095
:1036F000084360602878C00728D06868012810D087
:103700002168022810D0890700292EDA616821F08B
:10371000030101436160FEF7C5FE804641F288392E
:103720000DE021688903EFE78901EDE7FEF7BAFEB6
:10373000A0EB0801494502D90320BDE8F087606885
:10374000696800F00C00B0EB810FEFD1306800F039
:103750000700B8420BD9306820F0070038433060CA
:10376000306800F00700B84201D00120E5E7287872
:10377000400705D56068E96820F4E06008436060B0
:103780002878000706D56068296920F4605040EA6F
:10379000C100606000F038F86168084AC1F30311A5
:1037A000515CC8400649086006480068FFF7C6F942
:1037B0000020C2E700200240001002404EA3000893
:1037C000AC050020A40500200448054900684968AC
:1037D000044AC1F30221515CC8407047AC05002087
:1037E000001002405EA300080448054900684968CB
:1037F000044AC1F3C221515CC8407047AC050020A7
:10380000001002405EA300080E4A51680E4801F005
:103810000C03042B11D0082B0FD10C48C1F38343A8
:10382000C903C05C0AD55168084AC1F34041921EE1
:10383000515C054A5043B0FBF1F0704704494843DE
:10384000704700000010024000127A003EA30008FA
:1038500000093D002DE9F84F040070D02078C04DDC
:10386000C00749D06868C0F38100012807D06868A4
:10387000C0F38100022809D16868C00306D5286812
:10388000800339D560680028E7D035E06068B0F57E
:10389000803F0BD010B1B0F5A02F11D0286820F4D4
:1038A00080302860286820F4802002E0286840F4F6
:1038B00080302860606890B1FEF7F4FD06460AE0AB
:1038C000286840F480202860F0E700BFFEF7EAFD9A
:1038D000801B642873D828688003F7D50CE0FEF7B6
:1038E000E1FD064605E000BFFEF7DCFD801B642815
:1038F000F0D828688003F7D420789A4E80074FF0DC
:1039000001094FF0000839D5686810F00C0F07D096
:103910006868C0F38100022809D16868C00306D432
:103920002868800714D52069012808D110E0206993
:10393000B0B1C6F80090FEF7B5FD074605E00AE114
:10394000FEF7B0FDC01B0228C4D828688007F7D551
:103950002868616920F0F80040EAC10028600DE0A5
:10396000C6F80080FEF79EFD074604E0FEF79AFDCC
:10397000C01B022823D828688007F7D420780007C6
:103980002CD57948A169D9B1C0F80090FEF78AFD1D
:10399000074604E0FEF786FDC01B02280FD8686AC0
:1039A0008007F7D571484FF4FA510068B0FBF1F089
:1039B000009000BF0098411E0091FAD20EE080E016
:1039C000C0F80080FEF76EFD074604E0FEF76AFDD2
:1039D000C01B022875D8686A8007F7D42078400792
:1039E00060D5E8690027C00008D4E86940F080503D
:1039F000E861E869012700F0805000905C480168A8
:103A0000C90513D40168834641F480710160FEF753
:103A100049FD824606E000BFFEF744FDA0EB0A0028
:103A200064284ED8DBF80000C005F5D5E068012811
:103A30000AD008B1052813D0286A20F001002862B6
:103A4000286A20F0040002E0286A40F001002862A1
:103A5000E06841F2883B98B1FEF724FD82460BE016
:103A6000286A40F004002862EEE700BFFEF71AFD66
:103A7000A0EB0A0159455AD8286A8007F6D50CE010
:103A8000FEF710FD824605E0FEF70CFDA0EB0A01F3
:103A900059454CD8286A8007F6D41FB1E86920F050
:103AA0008050E861E06988B36968C1F38101022947
:103AB00044D00228C6F8608004D0FEF7F3FC044628
:103AC00038E034E0FEF7EEFC074604E0FEF7EAFCDF
:103AD000C01B02282BD828688001F7D4206AB0F5D3
:103AE000803F05D16868A16820F400300843686011
:103AF000D4E908010843696821F474110843686037
:103B0000C6F86090FEF7CEFC044606E025E000BF54
:103B1000FEF7C8FC001B022809D828688001F7D5E9
:103B20001BE000BFFEF7BEFC001B022802D90320E9
:103B3000BDE8F88F28688001F4D40EE00128F7D0A2
:103B40006868226A00F48031914204D1616A00F40D
:103B50007010884201D00120EAE70020E8E7000069
:103B6000001002400000424280044242AC050020A6
:103B70000070004010B5401EB0F1807F01D30120DD
:103B800010BD4FF0E02460610F21601705F04EFC7E
:103B90000020A06107202061002010BD7047704701
:103BA00010B590F83C20012A22D0012280F83C2058
:103BB000CA688C6822F4407222434C6822F4806206
:103BC00022430C6822F4006222430C6922F48052E2
:103BD00022434C6922F400522243C969002322F493
:103BE00080420A4301684A6480F83C30002010BDDE
:103BF000022010BD70B590F83C20012A2CD0012481
:103C000080F83C40022280F83D2003685A689D6895
:103C100022F070060A6832435A60104B02689A42DA
:103C20000ED00F4B9A420BD0B2F1804F08D00D4B03
:103C30009A4205D00C4B9A4202D00C4B9A4204D1C6
:103C4000496825F080031943916080F83D400021C8
:103C500080F83C10084670BD022070BD002C014069
:103C6000003401400004004000080040000C004007
:103C700010B5040003D094F83D0010B107E0012016
:103C800010BD002084F83C00204600F01FF8022000
:103C900084F83D00211D206802F024FF012084F8F3
:103CA000460084F83E0084F83F0084F8400084F821
:103CB000410084F8420084F8430084F8440084F80A
:103CC000450084F83D00002010BD000008B5254ADD
:103CD00001682548914207D1816941F40061816101
:103CE000806900F4006009E0204A914208D1C1696E
:103CF00041F00201C161C06900F00200009008BDFE
:103D00001B4A914207D1C16941F00401C161C069F8
:103D100000F00400F2E7174A91420ED1C16941F068
:103D20001001C161C069002200F010000090042160
:103D30003620FEF74FFF362010E00F4A9142DED1C9
:103D4000C16941F02001C161C069002200F020007A
:103D500000900F213720FEF73DFF3720BDE80840D7
:103D6000FEF72ABF002C0140001002400004004072
:103D700000080040001000400014004090F83D1082
:103D8000012901D001207047022180F83D1001680F
:103D9000CA6842F00102CA6000680E4988420ED02B
:103DA0000D4988420BD0B0F1804F08D00B498842B2
:103DB00005D00B49884202D00A49884204D1816863
:103DC00001F00701062903D0016841F001010160FB
:103DD00000207047002C01400034014000040040E6
:103DE00000080040000C00400168CA6822F001028F
:103DF000CA6001680A6A41F211131A4207D10A6ABD
:103E00009B101A4203D10A6822F001020A600121C4
:103E100080F83D100020704770B5044690F83C00D3
:103E20000025012817D0012684F83C60022084F880
:103E30003D002068826822F0770222F47F4282608F
:103E40000868502838D00DDC20284FD005DC90B30E
:103E5000102811D14AE0022070BD302846D04028F9
:103E60000AD13BE060282FD070280DD0B0F5805FDC
:103E700003D0B0F5005F12D0012584F83D6000202A
:103E800084F83C00284670BDCB68D1E90121206848
:103E900002F07BFE2068816841F0770109E0CB6881
:103EA000D1E90121206802F070FE2068816841F4A8
:103EB00080418160E1E719E0CA684968206802F042
:103EC00039FF5021206806E0CA684968206802F07E
:103ED00042FF6021206802F062FECEE7CA684968AE
:103EE000206802F027FF40212068F4E7226801469D
:103EF0001046F0E7704770B50446006801694FF05E
:103F00000005C943890715D4C168C943890711D47D
:103F1000E91E016101202077206880698007204622
:103F200002D0FFF7E7FF04E000F0F6F8204600F0CB
:103F300088F9257720680169C943490717D4C16802
:103F4000C943490713D46FF00401016102202077AF
:103F50002068806910F4407F204602D0FFF7CAFF36
:103F600004E000F0D9F8204600F06BF925772068CE
:103F70000169C943090716D4C168C943090712D4A6
:103F80006FF008010161042020772068C069800774
:103F9000204602D0FFF7AEFF04E000F0BDF8204657
:103FA00000F04FF9257720680169C943C90617D485
:103FB000C168C943C90613D46FF01001016108201C
:103FC00020772068C06910F4407F204602D0FFF7B8
:103FD00091FF04E000F0A0F8204600F032F92577C8
:103FE00020680169C943C90708D1C168C943C90725
:103FF00004D1891E0161204600F0BCF920680169E6
:10400000C943090609D4C168C943090605D46FF03C
:10401000800101612046FFF7C1FD20680169C943A5
:10402000490609D4C168C943490605D46FF0400167
:104030000161204600F0BAF920680169C943890688
:104040000BD4C168C943890607D46FF02001016110
:104050002046BDE87040FFF7A2BD70BD30B585B009
:10406000002100910191029103910068244B2549A0
:104070000224254A98420ED1886940F004008861E4
:104080008869039400F0040004908815CDE90004C9
:10409000694610461DE01D4B1D4D98421DD1886993
:1040A00040F004008861886900F004000490886989
:1040B00040F0080088618869694600F008000490B3
:1040C000C020CDE9000410460394FEF7DDF803207C
:1040D00010E0FEF7D9F805B030BD0E4A9042FAD193
:1040E000886940F008008861886900F00800049041
:1040F0004FF47070CDE90004694628460394E8E760
:10410000002C014000100240000801400004004063
:10411000000C014000080040704770B5044690F85C
:104120003C0000260D4601280FD0012084F83C00F9
:104130006AB1042A1DD0082A2FD00C2A3FD00126AC
:10414000002084F83C00304670BD022070BD20681D
:1041500002F02EFD2068816941F00801816120682C
:10416000816921F004018161206881692A69114314
:1041700011E0206802F04CFD2068816941F4006183
:1041800081612068816921F4806181612068816991
:104190002A6941EA02218161D2E7206802F06EFDBE
:1041A0002068C16941F00801C1612068C16921F03E
:1041B0000401C1612068C1692A69114311E02068C6
:1041C00002F090FD2068C16941F40061C16120687E
:1041D000C16921F48061C1612068C1692A6941EA2D
:1041E0000221C161ACE710B5040003D094F83D0092
:1041F00010B107E0012010BD002084F83C002046EB
:1042000000F01EF8022084F83D00211D206802F015
:1042100069FC012084F8460084F83E0084F83F00E1
:1042200084F8400084F8410084F8420084F8430098
:1042300084F8440084F8450084F83D00002010BD57
:104240007047704710B50446022249B104290ED0C8
:10425000082913D094F84100012816D0012010BD80
:1042600094F83E000128F9D184F83E200FE094F83C
:104270003F000128F2D184F83F2008E094F8400084
:104280000128EBD184F8402001E084F8412001228C
:10429000206802F06DFC13492068134A884201D05F
:1042A000904203D1436C43F4004343642068884246
:1042B0000DD090420BD0B0F1804F08D00B4988420E
:1042C00005D00B49884202D00A49884204D181684E
:1042D00001F00701062903D0016841F001010160E6
:1042E000002010BD002C01400034014000040040BB
:1042F00000080040000C004030B504460D46006840
:10430000002202F035FC194B41F2111120688A108D
:10431000984202D0164B984209D1036A0B4206D14B
:10432000036A134203D1436C23F4004343642068BF
:10433000036A0B4206D1016A114203D1016821F0E0
:104340000101016001203DB1042D08D0082D09D0E4
:1043500084F84100002030BD84F83E00FAE784F87C
:104360003F00F7E784F84000F4E70000002C01402C
:10437000003401400849884201D101F0FDBA0749E3
:10438000884208D1064801780120012901D1054958
:1043900008700549487070472C2A0020742A0020B4
:1043A000D4040020D504002000000020704770478E
:1043B00010B504460068416994F84220C1F38011A9
:1043C000222A0ED100290CD0416921F0400141611F
:1043D000E06B08B1FDF72DFC2046BDE8104000F071
:1043E00001B810BD0168CA6822F49072CA60016801
:1043F0004A6922F001024A61202180F84210704788
:1044000070470000F8B5016804460868CA684B693F
:1044100010F00F0F4FF0000559D003F0010602F421
:104420009077374365D0C10705D0D10503D5616CBE
:1044300041F001016164410705D5D90703D0616CE2
:1044400041F002016164810705D5D90703D0616C91
:1044500041F004016164010707D502F020013143F6
:1044600003D0616C41F008016164616C00293AD0AD
:10447000800604D5900602D5204602F058FD20683B
:104480004069616CC0F38010090700D460B3204616
:1044900002F018FD20684069400621D520681430DC
:1044A00050E8001F21F0400140E80012002AF5D139
:1044B000E06BA8B16D494163E06BFDF7DDFB0028BF
:1044C00011D0E06B416B01B0BDE8F04008478306B6
:1044D0000FD593060DD52046BDE8F84002F027BD64
:1044E0002046FFF78DFFF8BD2046FFF789FF656482
:1044F000F8BD266B2023012E7CD1C6067AD5D606C0
:1045000078D508684868009048694FF00206400670
:1045100040D5E16B086840680004000CE8D0A28D2B
:104520008242E5D9E085886920282DD020680C30AA
:1045300050E8001F21F4807140E80012002AF5D1F4
:104540002068143050E8001F21F0010140E80012FB
:10455000002AF5D12068143050E8001F21F04001F6
:1045600040E80012002AF5D184F842302563206823
:104570000C3050E8001F21F0100140E80012002A22
:10458000F5D1E06BFDF755FB6663A08DE18D401A18
:1045900081B22AE0A08DE18D401A81B2E08D002821
:1045A000A6D00029A4D022680C3252E8000F20F4D3
:1045B000907042E80007002FF5D12068143050E8D1
:1045C000002F22F0010240E80027002FF5D184F8E7
:1045D0004230256320680C3050E8002F22F0100292
:1045E00040E80023002BF5D166632046FFF7DFFE8D
:1045F000F8BDFFE705062BD5150629D594F841002F
:104600002128F5D1A068B0F5805F01D12069B0B153
:10461000206A411C2162216800784860E08C401EBD
:104620000004000CE084E3D12068C16821F080011F
:10463000C1602068C16841F04001C160D8E7206ACC
:104640000088C0F308004860206A801C2062E5E70B
:104650004006CDD55006CBD5CA68204622F0400290
:10466000CA6084F8413000F08DFAC1E77B6D000824
:1046700070B5040004D094F84100002510B106E0A4
:10468000012070BD84F84050204600F023F824201B
:1046900084F841002068C16821F40051C1602046BF
:1046A00002F0A6FC2068016921F4904101612068B4
:1046B000416921F02A0141612068C16841F400513B
:1046C000C1606564202084F8410084F8420065637D
:1046D000002070BD2DE9F04385B0002500950195BF
:1046E00002950395044603687248714E0221032225
:1046F000DFF8C4810715B34225D1836943F48043B1
:104700008361836903F480430493836943F0040362
:1047100083618069039200F0040004900802CDE9EF
:10472000000169464046FDF7AFFDCDE900756946D9
:1047300040460295FDF7A8FD002207212520FEF73F
:1047400049FA252053E0DFF874C180264FF01009A4
:10475000634551D1C36943F40033C361C36903F4B2
:1047600000330493836943F00403836180690392F7
:1047700000F0040004900420CDE90001694647469A
:104780004046FDF781FD0820CDE900056946384621
:104790000295FDF779FD4B4F4948C7E90005C7E988
:1047A00002563D617D61BD613846FD61FDF724FC27
:1047B00008B1FCF70AFEE7637C62424F4048443789
:1047C0001430C7E902563D617D61BD61FD61C7E9F5
:1047D00000093846FDF710FC08B1FCF7F6FDA763A9
:1047E0000022072126207C62FEF7F4F92620FEF73E
:1047F000E3F905B0BDE8F083DFF8CCC06345F8D13C
:10480000C36943F48023C361C36903F48023049321
:10481000836943F0100383618069CDE9007100F082
:104820001000CDE90320294F69463846FDF72CFDDD
:10483000F814CDE90005694638460295FDF724FDD8
:104840002348416821F0300141F0E06141F010015E
:1048500041601C4F1A4888373C38C7E90005C7E952
:1048600002563D617D61BD613846FD61FDF7C4FBC7
:1048700008B1FCF7AAFDE7637C62124F1048CC3701
:104880005038C7E902563D617D61BD61FD61C7E9F0
:1048900000093846FDF7B0FB08B1FCF796FDA763A9
:1048A0000022072127207C62FEF794F927209EE74B
:1048B0000038014000100240000801400044004060
:1048C0006C000240942B0020004800400010014082
:1048D000000001402DE9F843044690F84200994653
:1048E00016460D46202802D00220BDE8F883ADB15F
:1048F000A6B100206064222184F842102063FDF7F5
:10490000D1FDA6858046E685A0684FF48057B84261
:1049100001D1206920B12E46002526E00120E4E7E0
:10492000002622E04346002220212046CDF80090B8
:1049300002F01DFC08B10320D7E726B1A068B842F9
:104940001BD038B108E020684068C0F3080025F8A3
:10495000020B07E0206980B12068406800F07F000A
:1049600006F8010BE08D401EE085E08D0028D9D1CE
:10497000202084F842000020B7E720684068EFE775
:1049800090F84230202B01D00220704721B11AB19B
:104990000023036302F088BB0120704790F8423087
:1049A000202B01D00220704721B11AB100230363EC
:1049B00002F0C2BB0120704710B500682749884249
:1049C00001D1012008E02649884201D1022003E0FC
:1049D0002449884240D10320234901EB401050F87C
:1049E000200C002838D04021401EC0EBC00000EB56
:1049F00080021E4800EB8214D4F8500404EB8000BF
:104A0000C0F80C14D4F8B0084030C4F8B008D4F89A
:104A100050040F2813D0D4F85004401CC4F850049C
:104A200060680028D4F850044FF0400204EB801175
:104A3000206801F10C0104D0FFF7A2FF03E0002081
:104A4000ECE7FFF7ABFFD4F85004D4F84C148842DD
:104A500002D10120C4F8540410BD00000038014008
:104A6000004400400048004054A0000844070020D3
:104A700070472DE9F843044690F841001F4616465A
:104A80000D46202802D00220BDE8F8837DB176B122
:104A900000206064212084F84100FDF703FDA68416
:104AA0008046E684A068B0F5805F02D003E0012074
:104AB000EAE7206910B12E4600250EE000260CE042
:104AC0008021204602F053FBA0B9AEB116F8010BCD
:104AD00021684860E08C401EE084E08C43464FF043
:104AE000000200970028EBD14FF04001204602F071
:104AF0003EFB30B10320C7E735F8020BC0F30800D6
:104B0000E6E7202084F841000020BDE770B50446A8
:104B100090F84100202801D0022070BD49B342B373
:104B20002162A284E28400206064212384F8413061
:104B3000A56B114BAB62A56B104BEB62A56B104BD9
:104B40002B63A36B5863256813462A1DA06BFDF7E2
:104B500091FA21686FF0400008602068143050E836
:104B6000001F41F0800140E80012002AF5D100202A
:104B700070BD012070BD0000796E0008BB6E00089A
:104B80008B6D000800681749884201D1012008E0B8
:104B90001549884201D1022003E0144988421DD101
:104BA0000320134901EB401050F8200C002815D0C9
:104BB000401EC0EBC00000EB80010E4800EB8110EE
:104BC000D0F89C2800210F2A09D0D0F89C28521C2C
:104BD000C0F89C28C0F8A418C0F8A8187047C0F8FE
:104BE0009C18F7E7003801400044004000480040AE
:104BF00054A00008440700207047FEE70148FDF775
:104C000059BC0000BC28002038B5406A002190F84B
:104C10003D202B4B46F2A8141B68B3FBF4F3C3EB07
:104C2000C30303EB830300933BB15B1E0093036854
:104C30001B689B0505D5009BF6E7036C43F020033A
:104C40000364436B03B19962836B03B19962036898
:104C50001C6824F480641C604185436B03B1596374
:104C6000836B03B1596303681C6824F001041C6062
:104C700090F83D402023602C0BD0282434EA020217
:104C80000FD080F83D3080F83E1000BFFDF72AFDC0
:104C900038BD80F83D3080F83E100164FDF708FC17
:104CA00038BD0268136843F001031360026813689B
:104CB00043F480631360016380F83D40E6E7000041
:104CC000AC05002010B5406A0021426B02B1916230
:104CD000826B02B191620268136823F480631360EF
:104CE0004185202280F83D2080F83E10016C41F083
:104CF00010010164FDF7F6FC10BD2DE9F041446A96
:104D000094F83D2094F83E50E16A2068436823F40B
:104D100040734360636B002003B19862A36B03B1DF
:104D20009862212333EA02074FF022060CD036EABC
:104D3000020701D1202D07D094F83E20002A21D06F
:104D4000628D012A20D024E021684D6825F4006599
:104D50004D6060852820292A02D02A2A07D00CE03D
:104D6000236384F83D002046FDF7CDFE05E0266371
:104D700084F83D002046FDF7C5FE2068416841F4F7
:104D800040714160BDE8F0812268136823F48063BC
:104D900013602268536823F44073536011F5803F19
:104DA00006D0082904D0B1F12A4F01D0202904D11E
:104DB00021680A6842F400720A6021684A6822F495
:104DC00080524A6021684A6822F400624A60608525
:104DD000216C19B12046FDF785FCD3E7202184F82A
:104DE0003D1094F83E1084F83E00402905D0122072
:104DF00020632046FDF73DFDC4E720632046FDF714
:104E00003AFDBFE700684169C943090601D40021A2
:104E10000161704770B5044690F83D0094F83E106B
:104E2000102901D0402906D1222804D121680A681E
:104E300022F400620A60282131EA00024FF00005E6
:104E40004FF0200626D021684968090505D460285E
:104E500003D084F83D6084F83E50256320684168A3
:104E6000090537D5416821F400614160606B90F815
:104E700021203C49012A11D04163606BFCF7FCFE04
:104E800038B32068016821F00101016084F83D60B9
:104E9000606B1CE0256384F83D10DFE7A06B416385
:104EA000A06BFCF7E9FEA0B120684169C94349063F
:104EB00005D40069616A0870606A401C60622068FD
:104EC000016821F00101016084F83D60A06B416B35
:104ED000884710E094F83D10602910D04169C9431B
:104EE000490605D40069616A0870606A401C606206
:104EF0002046FDF7F7FB206CC1071CD115E084F8B4
:104F00003D6025644169C943490605D40069616A69
:104F10000870606A401C60622068016821F001012D
:104F200001602046FDF7C4FAE5E7810703D4410795
:104F300001D4000704D52068416821F4E061416094
:104F400094F83D00216C49070BD5282809D1064863
:104F5000E062256384F83D6084F83E502046FDF70A
:104F600087FC70BD094C00080000FFFF01684A691A
:104F7000D24352050FD46FF480624A61002140F899
:104F8000301F202242738173026942F004020261E1
:104F90000173012070470020704710B5C26A438D2D
:104FA0000168042B06D0438D032B08D0438D022BC0
:104FB0001DD012E04A6822F480624A600CE04B681F
:104FC00023F480634B60042A06D0022A04D00168CF
:104FD0000A6822F480620A6001680969426A1170F5
:104FE000416A491C4162418D491E418510BD012A1B
:104FF00030D0102A2ED0042A30D0022A2ED00A68AF
:1050000042F400720A6001680969426A1170416ADB
:10501000491C4162428D521E4285026812690A7023
:10502000416A491C4162418D491E418501684A68B7
:1050300022F440724A60202180F83D1090F83E2012
:105040000021402A80F83E100CD012210163FDF7A8
:1050500010FC10BD0A6822F48062D3E70A6842F4AB
:105060008062CFE70163FDF706FC10BD38B590F80C
:105070003D1022290FD1418D03290DD901680969FD
:10508000426A1170416A491C4162418D491E418545
:10509000418D032906D038BDC26A022A02D00129F7
:1050A00006D029B10068416821F48061416038BDB3
:1050B000274946F2A81300220968B1FBF3F101EB7E
:1050C0008101009101682023009C641E009422D07D
:1050D0000C68A405F8D40C6824F480640C600168A2
:1050E0004C6824F4E0644C6001680969446A2170EA
:1050F000416A491C4162418D491E418580F83D301D
:1051000090F83E1080F83E2040291DD01221016306
:10511000FDF7AFFB38BD046C44F0200404644C6818
:1051200024F4E0644C6001680969446A2170416AB2
:10513000491C4162418D491E418580F83D3080F80F
:105140003E20FDF7CFFA38BD0263FDF794FB38BD72
:10515000AC05002010B5C26A90F83D1021290BD192
:10516000418D51B1416A026809781161416A491C57
:105170004162418D491E418510BD20230021082A2E
:1051800013D0202A11D012F5803F0ED00268546847
:1051900024F4E06454601122026380F83E1080F829
:1051A0003D3000BFFDF766FB10BD0268546824F473
:1051B000E06454600268146844F40074146001638D
:1051C00080F83D3090F83E2080F83E10402AE9D12A
:1051D000FDF752FB10BD000010B590F83D1090F89F
:1051E0003E30C26A048DB4B1212903D0402B11D1C5
:1051F00022290FD1418DE1B390F83E10402942D0D1
:10520000416A026809781161416A491C4162418D15
:10521000491E418510BD2129E8D120230021082AFB
:1052200013D0202A11D012F5803F0ED002685468A6
:1052300024F4E06454601122026380F83E1080F888
:105240003D3000BFFDF716FB10BD0268546824F422
:10525000E06454600268146844F4007414600163EC
:1052600080F83D3090F83E2080F83E10402AE9D189
:1052700000E002E0FDF700FB10BD0068416821F48A
:105280008061416010BDBDE8104000F0F3B800003F
:1052900078B590F83E50C26A046B90F83D600023E8
:1052A0000168222E73D1066D0EB9402D6FD0056DA9
:1052B0001DB90569B5F5404F1BD0458D95B3468D99
:1052C000484D012E20D0448D022C4DD00C6844F462
:1052D00080640C6001684C68240579D5AA4273D0BB
:1052E000012A71D0082A6FD0102A6DD0202A6BD0E5
:1052F0006EE04A698A6900920A6842F480720A6024
:10530000016D491C016578BDAA4214D10A6822F4D6
:1053100080620A6001684A68120504D50A6822F4AE
:10532000806217E0FFE74A698A6900920A6842F4DE
:1053300000720A6050E0082A10D0202A0ED0122CE9
:105340000AD0042A03D0022A01D0102AE6D10A6822
:1053500042F480620A603BE0012ADFD00A6822F44E
:1053600080620A600168DEE7042A11D0022A0FD0A9
:10537000102A0DD00C6844F400640C6001684C697C
:105380008C6900940C6824F480640C6008E025E0CB
:105390000C6844F480640C6001684C698969009170
:1053A00001684C68240517D5AA4207D0012A05D008
:1053B000082A03D0102A01D0202A0DD14A6842F4CD
:1053C00080524A6008E0FFE74A6842F480524A602F
:1053D00001684A6989690091036578BD48698869EF
:1053E000009078BD0000FFFF90F83E10402910D0DB
:1053F0000169B1F5804F19D0016DA9B3016D012983
:1054000010D1416C5FF0F10201F4407142EAD11118
:1054100006E0016D0029416C05D0C9B241F00101DF
:1054200000680161704701F0FE01F9E790F83D1056
:105430002129416C09D0C9B241F001010268116112
:10544000416B29B1896A49B902E001F0FE01F5E733
:10545000816B0029E6D0896A0029E3D000684168A1
:1054600041F4006141607047FFE7416CF02201F4B4
:105470004071CBE710B590F83D10026D4AB1026D56
:10548000012A14D0026D022A16D0BDE81040FFF7A1
:10549000B9BCC16C0129816C02D0C1F3072108E0BD
:1054A0000268C9B21161016D891C016510BD816C72
:1054B000C9B20268116123E022291CD0428D0AB1D1
:1054C000212920D0428D002AF0D12129EED1016876
:1054D0004A6822F4E0624A6001680A6842F4007295
:1054E0000A6000210163202280F83D2080F83E10F0
:1054F000FDF7C2F910BD01680A6842F480720A60C3
:10550000016D491CD1E7416A026809781161416A5D
:10551000491C4162418D491E418510BD2DE9F8436A
:10552000044600680D46DDE908970168984616466E
:1055300041F4807101604B4600224FF0011120467A
:10554000009700F011F948B120680068C00502D545
:105550004FF4007020640320BDE8F883216805F053
:10556000FE0008613B464A461549204600F044F9D2
:1055700088B920684169806900903A4649462046CA
:1055800000F098F948B1206C042804D12068016823
:1055900041F4007101600120DEE7F5B2B8F1010FBE
:1055A00009D02168300A08613A464946204600F091
:1055B00081F90028E7D1206805610020CCE70000D0
:1055C0000200010038B50C4690F83D200021282546
:1055D000954302680B4605D051699169009180F8A6
:1055E0003C3038BD556825F480655560E24354076A
:1055F00000D50121120601D5828900E0028B80F8D6
:105600003C3092B2FCF755FF38BD0000F8B590F879
:105610003D6004460068416821F4E0614160206813
:10562000002541690091016841F001010160206895
:10563000016821F48061016020684168090520D576
:10564000474F222E48D02A2E46D0616B0968496800
:105650006185618D19B1216C41F0040121644168BB
:1056600021F400614160606BFCF79EFB012808D0CB
:10567000606B4763606BFCF7FFFA10B1606B416BC6
:105680008847608D08B320684169C943490708D439
:105690000069616A0870606A401C6062608D401E2B
:1056A000608520684169C943490608D40069616A78
:1056B0000870606A401C6062608D401E6085608D6D
:1056C00018B1206C40F004002064206C00B3204628
:1056D000BDE8F840FFF79EBBA16B0968496861858A
:1056E000618D19B1216C41F004012164416821F4FC
:1056F00000614160A06BFCF757FB0128C1D0A06B93
:105700004763A06BFCF7B8FA0028BAD0A06BB6E7E5
:105710002A2E06D12563282084F83D002046FDF777
:10572000F1F994F83D10202028290DD0216B222971
:1057300001D0222E07D1256384F83D0084F83E5025
:105740002046FDF7DFF9F8BD0649E162256384F8DC
:105750003D0084F83E502046FDF78AF8F8BD000071
:10576000094C00080000FFFF2DE9F0479846174656
:105770000D460446C1F30746DDF820902AE000BF3D
:10578000B8F1FF3F26D0FCF78DFEA0EB09014145A3
:1057900002D8B8F1000F1DD12068012E16D0806903
:1057A00025EA00000004000C12D00020B84211D1FC
:1057B000002044F8300F20216173A073216941F06B
:1057C0002001216120730120BDE8F0874069E7E7EF
:1057D0000120EBE72068012E0AD0806925EA00004D
:1057E0000004000C06D00020B842C9D00020EBE72E
:1057F0004069F3E70120F7E72DE9F04798461646A0
:105800000D4604464FF000094FF0200AC1F3074748
:1058100023E020684069C043400515D42068016832
:1058200041F40071016021686FF480604861C4F840
:10583000309084F83DA084F83E90216C41F0040142
:10584000216484F83C9021E0701C06D0FCF72AFE0D
:10585000A0EB0800B04203D816B1012F1FD021E001
:105860002068012F15D0806925EA00000004000C93
:1058700018D000BF44F8309F84F80DA084F80E9033
:10588000216941F02001216184F80C900120BDE8DC
:10589000F087406925EA00000004000CEAD1206886
:1058A000406901E02068806925EA00000004000CDE
:1058B000AFD1ECE770B516460D4604461EE0204613
:1058C000FFF754FB08B1012070BD681C16D0FCF72F
:1058D000E9FD801BA84200D885B920684069C04313
:1058E00000060BD5002044F8300F20216173A0730F
:1058F000216941F0200121612073E4E720684069BB
:10590000C0430006DBD4002070BD000010B5942118
:105910001048FAF752FC0F486FF011025400C0E92A
:1059200004422424C464541044620924C463002142
:105930006FF01A04C0E9064112231B24C466C0E9B3
:105940000A23C160C367C0F88810BDE8104000F0AA
:105950000BB80000F025002000224FF40051014850
:10596000FCF79BBD00100140012251030148FCF7E8
:1059700094BD000000100140034805220149006861
:10598000FCF7A6B8F025002030000020F0B5002379
:105990000A24302537261F4611E000BFB4EB107FE4
:1059A00002D905EB107C01E006EB107C01F813C076
:1059B00001EB430C00015B1C8CF80170DBB29342DD
:1059C000ECD3F0BD2DE9F74F8CB01046FAF791FDFE
:1059D0008D4C05460D98676D3946FAF78DFC2946C2
:1059E000FAF7C2FC054620642946206BFAF78AFCC8
:1059F000D4F81480064639464046FAF783FC216DF8
:105A0000FAF728FC3146FAF725FCA06405902946F0
:105A1000606BFAF777FC3946FAF71CFC8346E064C2
:105A2000A068029001464046FAF76CFC06462068E2
:105A30000190256901462846FAF764FC3146FAF7D9
:105A400009FC0746E068009001464046FAF75AFC18
:105A500006466068039001462846FAF753FC314633
:105A6000FAF7F8FBD4F81C80054640460299FAF78D
:105A700049FCA669814630460199FAF743FC49463C
:105A8000FAF7E8FB814640460099FAF73BFC80466E
:105A900030460399FAF736FC4146FAF7DBFB064637
:105AA00028460399FAF72EFC804638460199FAF702
:105AB00029FC4146FAF7CEFB216AFAF7CBFB804678
:105AC00028460099FAF71EFC054640460299FAF767
:105AD00019FC2946FAF7BEFB824630460399FAF7CD
